{
  "contractName": "NiftMemoryHeart",
  "abi": [
    {
      "inputs": [],
      "stateMutability": "nonpayable",
      "type": "constructor"
    },
    {
      "anonymous": false,
      "inputs": [
        {
          "indexed": true,
          "internalType": "address",
          "name": "owner",
          "type": "address"
        },
        {
          "indexed": true,
          "internalType": "address",
          "name": "approved",
          "type": "address"
        },
        {
          "indexed": true,
          "internalType": "uint256",
          "name": "tokenId",
          "type": "uint256"
        }
      ],
      "name": "Approval",
      "type": "event"
    },
    {
      "anonymous": false,
      "inputs": [
        {
          "indexed": true,
          "internalType": "address",
          "name": "owner",
          "type": "address"
        },
        {
          "indexed": true,
          "internalType": "address",
          "name": "operator",
          "type": "address"
        },
        {
          "indexed": false,
          "internalType": "bool",
          "name": "approved",
          "type": "bool"
        }
      ],
      "name": "ApprovalForAll",
      "type": "event"
    },
    {
      "anonymous": false,
      "inputs": [
        {
          "indexed": false,
          "internalType": "address",
          "name": "addr",
          "type": "address"
        },
        {
          "indexed": false,
          "internalType": "uint256",
          "name": "time",
          "type": "uint256"
        }
      ],
      "name": "Craft",
      "type": "event"
    },
    {
      "anonymous": false,
      "inputs": [
        {
          "indexed": true,
          "internalType": "address",
          "name": "previousOwner",
          "type": "address"
        },
        {
          "indexed": true,
          "internalType": "address",
          "name": "newOwner",
          "type": "address"
        }
      ],
      "name": "OwnershipTransferred",
      "type": "event"
    },
    {
      "anonymous": false,
      "inputs": [
        {
          "indexed": false,
          "internalType": "address",
          "name": "addr",
          "type": "address"
        },
        {
          "indexed": false,
          "internalType": "uint256",
          "name": "time",
          "type": "uint256"
        }
      ],
      "name": "Revert",
      "type": "event"
    },
    {
      "anonymous": false,
      "inputs": [
        {
          "indexed": true,
          "internalType": "address",
          "name": "from",
          "type": "address"
        },
        {
          "indexed": true,
          "internalType": "address",
          "name": "to",
          "type": "address"
        },
        {
          "indexed": true,
          "internalType": "uint256",
          "name": "tokenId",
          "type": "uint256"
        }
      ],
      "name": "Transfer",
      "type": "event"
    },
    {
      "anonymous": false,
      "inputs": [
        {
          "indexed": false,
          "internalType": "uint256",
          "name": "amount",
          "type": "uint256"
        },
        {
          "indexed": false,
          "internalType": "address",
          "name": "receiver",
          "type": "address"
        },
        {
          "indexed": false,
          "internalType": "uint256",
          "name": "time",
          "type": "uint256"
        }
      ],
      "name": "WithdrawDust",
      "type": "event"
    },
    {
      "inputs": [
        {
          "internalType": "address",
          "name": "to",
          "type": "address"
        },
        {
          "internalType": "uint256",
          "name": "tokenId",
          "type": "uint256"
        }
      ],
      "name": "approve",
      "outputs": [],
      "stateMutability": "nonpayable",
      "type": "function"
    },
    {
      "inputs": [
        {
          "internalType": "address",
          "name": "owner",
          "type": "address"
        }
      ],
      "name": "balanceOf",
      "outputs": [
        {
          "internalType": "uint256",
          "name": "",
          "type": "uint256"
        }
      ],
      "stateMutability": "view",
      "type": "function",
      "constant": true
    },
    {
      "inputs": [
        {
          "internalType": "uint256",
          "name": "tokenId",
          "type": "uint256"
        }
      ],
      "name": "getApproved",
      "outputs": [
        {
          "internalType": "address",
          "name": "",
          "type": "address"
        }
      ],
      "stateMutability": "view",
      "type": "function",
      "constant": true
    },
    {
      "inputs": [
        {
          "internalType": "address",
          "name": "owner",
          "type": "address"
        },
        {
          "internalType": "address",
          "name": "operator",
          "type": "address"
        }
      ],
      "name": "isApprovedForAll",
      "outputs": [
        {
          "internalType": "bool",
          "name": "",
          "type": "bool"
        }
      ],
      "stateMutability": "view",
      "type": "function",
      "constant": true
    },
    {
      "inputs": [],
      "name": "name",
      "outputs": [
        {
          "internalType": "string",
          "name": "",
          "type": "string"
        }
      ],
      "stateMutability": "view",
      "type": "function",
      "constant": true
    },
    {
      "inputs": [],
      "name": "owner",
      "outputs": [
        {
          "internalType": "address",
          "name": "",
          "type": "address"
        }
      ],
      "stateMutability": "view",
      "type": "function",
      "constant": true
    },
    {
      "inputs": [
        {
          "internalType": "uint256",
          "name": "tokenId",
          "type": "uint256"
        }
      ],
      "name": "ownerOf",
      "outputs": [
        {
          "internalType": "address",
          "name": "",
          "type": "address"
        }
      ],
      "stateMutability": "view",
      "type": "function",
      "constant": true
    },
    {
      "inputs": [],
      "name": "renounceOwnership",
      "outputs": [],
      "stateMutability": "nonpayable",
      "type": "function"
    },
    {
      "inputs": [
        {
          "internalType": "address",
          "name": "from",
          "type": "address"
        },
        {
          "internalType": "address",
          "name": "to",
          "type": "address"
        },
        {
          "internalType": "uint256",
          "name": "tokenId",
          "type": "uint256"
        }
      ],
      "name": "safeTransferFrom",
      "outputs": [],
      "stateMutability": "nonpayable",
      "type": "function"
    },
    {
      "inputs": [
        {
          "internalType": "address",
          "name": "from",
          "type": "address"
        },
        {
          "internalType": "address",
          "name": "to",
          "type": "address"
        },
        {
          "internalType": "uint256",
          "name": "tokenId",
          "type": "uint256"
        },
        {
          "internalType": "bytes",
          "name": "_data",
          "type": "bytes"
        }
      ],
      "name": "safeTransferFrom",
      "outputs": [],
      "stateMutability": "nonpayable",
      "type": "function"
    },
    {
      "inputs": [
        {
          "internalType": "address",
          "name": "operator",
          "type": "address"
        },
        {
          "internalType": "bool",
          "name": "approved",
          "type": "bool"
        }
      ],
      "name": "setApprovalForAll",
      "outputs": [],
      "stateMutability": "nonpayable",
      "type": "function"
    },
    {
      "inputs": [
        {
          "internalType": "bytes4",
          "name": "interfaceId",
          "type": "bytes4"
        }
      ],
      "name": "supportsInterface",
      "outputs": [
        {
          "internalType": "bool",
          "name": "",
          "type": "bool"
        }
      ],
      "stateMutability": "view",
      "type": "function",
      "constant": true
    },
    {
      "inputs": [],
      "name": "symbol",
      "outputs": [
        {
          "internalType": "string",
          "name": "",
          "type": "string"
        }
      ],
      "stateMutability": "view",
      "type": "function",
      "constant": true
    },
    {
      "inputs": [
        {
          "internalType": "uint256",
          "name": "tokenId",
          "type": "uint256"
        }
      ],
      "name": "tokenURI",
      "outputs": [
        {
          "internalType": "string",
          "name": "",
          "type": "string"
        }
      ],
      "stateMutability": "view",
      "type": "function",
      "constant": true
    },
    {
      "inputs": [
        {
          "internalType": "address",
          "name": "from",
          "type": "address"
        },
        {
          "internalType": "address",
          "name": "to",
          "type": "address"
        },
        {
          "internalType": "uint256",
          "name": "tokenId",
          "type": "uint256"
        }
      ],
      "name": "transferFrom",
      "outputs": [],
      "stateMutability": "nonpayable",
      "type": "function"
    },
    {
      "inputs": [
        {
          "internalType": "address",
          "name": "newOwner",
          "type": "address"
        }
      ],
      "name": "transferOwnership",
      "outputs": [],
      "stateMutability": "nonpayable",
      "type": "function"
    },
    {
      "inputs": [],
      "name": "craft",
      "outputs": [],
      "stateMutability": "nonpayable",
      "type": "function"
    },
    {
      "inputs": [],
      "name": "revert",
      "outputs": [],
      "stateMutability": "nonpayable",
      "type": "function"
    },
    {
      "inputs": [],
      "name": "withdrawDust",
      "outputs": [],
      "stateMutability": "nonpayable",
      "type": "function"
    }
  ],
  "bytecode": "0x608060405273aae5fc57ae9b2702e165224bc7b4f700ba698b22600860006101000a81548173ffffffffffffffffffffffffffffffffffffffff021916908373ffffffffffffffffffffffffffffffffffffffff16021790555073e3864fb24851ea437043ae62104df4692e11b8b1600960006101000a81548173ffffffffffffffffffffffffffffffffffffffff021916908373ffffffffffffffffffffffffffffffffffffffff1602179055506063600960146101000a81548160ff021916908360ff160217905550348015620000d757600080fd5b506040518060400160405280601181526020017f4e696674206d656d6f72792068656172740000000000000000000000000000008152506040518060400160405280600a81526020017f4e4946542d48454152540000000000000000000000000000000000000000000081525081600090805190602001906200015c92919062000237565b5080600190805190602001906200017592919062000237565b50505060006200018a6200022f60201b60201c565b905080600760006101000a81548173ffffffffffffffffffffffffffffffffffffffff021916908373ffffffffffffffffffffffffffffffffffffffff1602179055508073ffffffffffffffffffffffffffffffffffffffff16600073ffffffffffffffffffffffffffffffffffffffff167f8be0079c531659141344cd1fd0a4f28419497f9722a3daafe3b4186f6b6457e060405160405180910390a3506200034c565b600033905090565b8280546200024590620002e7565b90600052602060002090601f016020900481019282620002695760008555620002b5565b82601f106200028457805160ff1916838001178555620002b5565b82800160010185558215620002b5579182015b82811115620002b457825182559160200191906001019062000297565b5b509050620002c49190620002c8565b5090565b5b80821115620002e3576000816000905550600101620002c9565b5090565b600060028204905060018216806200030057607f821691505b602082108114156200031757620003166200031d565b5b50919050565b7f4e487b7100000000000000000000000000000000000000000000000000000000600052602260045260246000fd5b613c5b806200035c6000396000f3fe608060405234801561001057600080fd5b50600436106101215760003560e01c80637da3c3ab116100ad578063b88d4fde11610071578063b88d4fde146102ce578063c87b56dd146102ea578063cfb550f11461031a578063e985e9c514610324578063f2fde38b1461035457610121565b80637da3c3ab14610262578063814e4ad91461026c5780638da5cb5b1461027657806395d89b4114610294578063a22cb465146102b257610121565b806323b872dd116100f457806323b872dd146101c057806342842e0e146101dc5780636352211e146101f857806370a0823114610228578063715018a61461025857610121565b806301ffc9a71461012657806306fdde0314610156578063081812fc14610174578063095ea7b3146101a4575b600080fd5b610140600480360381019061013b9190612888565b610370565b60405161014d9190612eb7565b60405180910390f35b61015e610452565b60405161016b9190612ed2565b60405180910390f35b61018e600480360381019061018991906128e2565b6104e4565b60405161019b9190612d4b565b60405180910390f35b6101be60048036038101906101b9919061281b565b610569565b005b6101da60048036038101906101d59190612705565b610681565b005b6101f660048036038101906101f19190612705565b6106e1565b005b610212600480360381019061020d91906128e2565b610701565b60405161021f9190612d4b565b60405180910390f35b610242600480360381019061023d9190612698565b6107b3565b60405161024f9190613194565b60405180910390f35b61026061086b565b005b61026a6109a8565b005b610274610c3c565b005b61027e610f38565b60405161028b9190612d4b565b60405180910390f35b61029c610f62565b6040516102a99190612ed2565b60405180910390f35b6102cc60048036038101906102c791906127db565b610ff4565b005b6102e860048036038101906102e39190612758565b611175565b005b61030460048036038101906102ff91906128e2565b6111d7565b6040516103119190612ed2565b60405180910390f35b610322611329565b005b61033e600480360381019061033991906126c5565b6115d1565b60405161034b9190612eb7565b60405180910390f35b61036e60048036038101906103699190612698565b611665565b005b60007f80ac58cd000000000000000000000000000000000000000000000000000000007bffffffffffffffffffffffffffffffffffffffffffffffffffffffff1916827bffffffffffffffffffffffffffffffffffffffffffffffffffffffff1916148061043b57507f5b5e139f000000000000000000000000000000000000000000000000000000007bffffffffffffffffffffffffffffffffffffffffffffffffffffffff1916827bffffffffffffffffffffffffffffffffffffffffffffffffffffffff1916145b8061044b575061044a82611811565b5b9050919050565b60606000805461046190613438565b80601f016020809104026020016040519081016040528092919081815260200182805461048d90613438565b80156104da5780601f106104af576101008083540402835291602001916104da565b820191906000526020600020905b8154815290600101906020018083116104bd57829003601f168201915b5050505050905090565b60006104ef8261187b565b61052e576040517f08c379a0000000000000000000000000000000000000000000000000000000008152600401610525906130b4565b60405180910390fd5b6004600083815260200190815260200160002060009054906101000a900473ffffffffffffffffffffffffffffffffffffffff169050919050565b600061057482610701565b90508073ffffffffffffffffffffffffffffffffffffffff168373ffffffffffffffffffffffffffffffffffffffff1614156105e5576040517f08c379a00000000000000000000000000000000000000000000000000000000081526004016105dc90613134565b60405180910390fd5b8073ffffffffffffffffffffffffffffffffffffffff166106046118e7565b73ffffffffffffffffffffffffffffffffffffffff16148061063357506106328161062d6118e7565b6115d1565b5b610672576040517f08c379a000000000000000000000000000000000000000000000000000000000815260040161066990612fd4565b60405180910390fd5b61067c83836118ef565b505050565b61069261068c6118e7565b826119a8565b6106d1576040517f08c379a00000000000000000000000000000000000000000000000000000000081526004016106c890613174565b60405180910390fd5b6106dc838383611a86565b505050565b6106fc83838360405180602001604052806000815250611175565b505050565b6000806002600084815260200190815260200160002060009054906101000a900473ffffffffffffffffffffffffffffffffffffffff169050600073ffffffffffffffffffffffffffffffffffffffff168173ffffffffffffffffffffffffffffffffffffffff1614156107aa576040517f08c379a00000000000000000000000000000000000000000000000000000000081526004016107a190613014565b60405180910390fd5b80915050919050565b60008073ffffffffffffffffffffffffffffffffffffffff168273ffffffffffffffffffffffffffffffffffffffff161415610824576040517f08c379a000000000000000000000000000000000000000000000000000000000815260040161081b90612ff4565b60405180910390fd5b600360008373ffffffffffffffffffffffffffffffffffffffff1673ffffffffffffffffffffffffffffffffffffffff168152602001908152602001600020549050919050565b6108736118e7565b73ffffffffffffffffffffffffffffffffffffffff16610891610f38565b73ffffffffffffffffffffffffffffffffffffffff16146108e7576040517f08c379a00000000000000000000000000000000000000000000000000000000081526004016108de906130d4565b60405180910390fd5b600073ffffffffffffffffffffffffffffffffffffffff16600760009054906101000a900473ffffffffffffffffffffffffffffffffffffffff1673ffffffffffffffffffffffffffffffffffffffff167f8be0079c531659141344cd1fd0a4f28419497f9722a3daafe3b4186f6b6457e060405160405180910390a36000600760006101000a81548173ffffffffffffffffffffffffffffffffffffffff021916908373ffffffffffffffffffffffffffffffffffffffff160217905550565b3373ffffffffffffffffffffffffffffffffffffffff166109da600960149054906101000a900460ff1660ff16610701565b73ffffffffffffffffffffffffffffffffffffffff1614610a30576040517f08c379a0000000000000000000000000000000000000000000000000000000008152600401610a2790612f94565b60405180910390fd5b610a4b600960149054906101000a900460ff1660ff16611ce2565b600960009054906101000a900473ffffffffffffffffffffffffffffffffffffffff1673ffffffffffffffffffffffffffffffffffffffff166323b872dd303360016040518463ffffffff1660e01b8152600401610aab93929190612d9d565b600060405180830381600087803b158015610ac557600080fd5b505af1158015610ad9573d6000803e3d6000fd5b50505050600960009054906101000a900473ffffffffffffffffffffffffffffffffffffffff1673ffffffffffffffffffffffffffffffffffffffff166323b872dd303360026040518463ffffffff1660e01b8152600401610b3d93929190612dd4565b600060405180830381600087803b158015610b5757600080fd5b505af1158015610b6b573d6000803e3d6000fd5b50505050600960009054906101000a900473ffffffffffffffffffffffffffffffffffffffff1673ffffffffffffffffffffffffffffffffffffffff166323b872dd303360036040518463ffffffff1660e01b8152600401610bcf93929190612e0b565b600060405180830381600087803b158015610be957600080fd5b505af1158015610bfd573d6000803e3d6000fd5b505050507f1bfb532100d422bf0d8c820238e0edec212aee51ef42dcfa4f32a098f409cee43342604051610c32929190612e8e565b60405180910390a1565b600960009054906101000a900473ffffffffffffffffffffffffffffffffffffffff1673ffffffffffffffffffffffffffffffffffffffff166323b872dd333060016040518463ffffffff1660e01b8152600401610c9c93929190612d9d565b600060405180830381600087803b158015610cb657600080fd5b505af1158015610cca573d6000803e3d6000fd5b50505050600960009054906101000a900473ffffffffffffffffffffffffffffffffffffffff1673ffffffffffffffffffffffffffffffffffffffff166323b872dd333060026040518463ffffffff1660e01b8152600401610d2e93929190612dd4565b600060405180830381600087803b158015610d4857600080fd5b505af1158015610d5c573d6000803e3d6000fd5b50505050600960009054906101000a900473ffffffffffffffffffffffffffffffffffffffff1673ffffffffffffffffffffffffffffffffffffffff166323b872dd333060036040518463ffffffff1660e01b8152600401610dc093929190612e0b565b600060405180830381600087803b158015610dda57600080fd5b505af1158015610dee573d6000803e3d6000fd5b50505050600860009054906101000a900473ffffffffffffffffffffffffffffffffffffffff1673ffffffffffffffffffffffffffffffffffffffff166323b872dd333068056bc75e2d631000006040518463ffffffff1660e01b8152600401610e5a93929190612d66565b602060405180830381600087803b158015610e7457600080fd5b505af1158015610e88573d6000803e3d6000fd5b505050506040513d601f19601f82011682018060405250810190610eac919061285b565b50610ec933600960149054906101000a900460ff1660ff16611d35565b610efd600960149054906101000a900460ff1660ff16604051806060016040528060338152602001613bf360339139611f03565b7f82bf558222c4c37aae80230f0a656373f327bcc6f1ac1ef73c385d4dec21b2233342604051610f2e929190612e8e565b60405180910390a1565b6000600760009054906101000a900473ffffffffffffffffffffffffffffffffffffffff16905090565b606060018054610f7190613438565b80601f0160208091040260200160405190810160405280929190818152602001828054610f9d90613438565b8015610fea5780601f10610fbf57610100808354040283529160200191610fea565b820191906000526020600020905b815481529060010190602001808311610fcd57829003601f168201915b5050505050905090565b610ffc6118e7565b73ffffffffffffffffffffffffffffffffffffffff168273ffffffffffffffffffffffffffffffffffffffff16141561106a576040517f08c379a000000000000000000000000000000000000000000000000000000000815260040161106190612f74565b60405180910390fd5b80600560006110776118e7565b73ffffffffffffffffffffffffffffffffffffffff1673ffffffffffffffffffffffffffffffffffffffff16815260200190815260200160002060008473ffffffffffffffffffffffffffffffffffffffff1673ffffffffffffffffffffffffffffffffffffffff16815260200190815260200160002060006101000a81548160ff0219169083151502179055508173ffffffffffffffffffffffffffffffffffffffff166111246118e7565b73ffffffffffffffffffffffffffffffffffffffff167f17307eab39ab6107e8899845ad3d59bd9653f200f220920489ca2b5937696c31836040516111699190612eb7565b60405180910390a35050565b6111866111806118e7565b836119a8565b6111c5576040517f08c379a00000000000000000000000000000000000000000000000000000000081526004016111bc90613174565b60405180910390fd5b6111d184848484611f77565b50505050565b60606111e28261187b565b611221576040517f08c379a000000000000000000000000000000000000000000000000000000000815260040161121890613094565b60405180910390fd5b600060066000848152602001908152602001600020805461124190613438565b80601f016020809104026020016040519081016040528092919081815260200182805461126d90613438565b80156112ba5780601f1061128f576101008083540402835291602001916112ba565b820191906000526020600020905b81548152906001019060200180831161129d57829003601f168201915b5050505050905060006112cb611fd3565b90506000815114156112e1578192505050611324565b6000825111156113165780826040516020016112fe929190612d27565b60405160208183030381529060405292505050611324565b61131f84611fea565b925050505b919050565b6113316118e7565b73ffffffffffffffffffffffffffffffffffffffff1661134f610f38565b73ffffffffffffffffffffffffffffffffffffffff16146113a5576040517f08c379a000000000000000000000000000000000000000000000000000000000815260040161139c906130d4565b60405180910390fd5b6000600860009054906101000a900473ffffffffffffffffffffffffffffffffffffffff1673ffffffffffffffffffffffffffffffffffffffff166370a08231306040518263ffffffff1660e01b81526004016114029190612d4b565b60206040518083038186803b15801561141a57600080fd5b505afa15801561142e573d6000803e3d6000fd5b505050506040513d601f19601f82011682018060405250810190611452919061290f565b905060008111611497576040517f08c379a000000000000000000000000000000000000000000000000000000000815260040161148e90613154565b60405180910390fd5b600860009054906101000a900473ffffffffffffffffffffffffffffffffffffffff1673ffffffffffffffffffffffffffffffffffffffff1663a9059cbb6114dd610f38565b836040518363ffffffff1660e01b81526004016114fb929190612e8e565b602060405180830381600087803b15801561151557600080fd5b505af1158015611529573d6000803e3d6000fd5b505050506040513d601f19601f8201168201806040525081019061154d919061285b565b61158c576040517f08c379a000000000000000000000000000000000000000000000000000000000815260040161158390613054565b60405180910390fd5b7f3c4cdee80b80805efed298d03cc2893e1dad79ba08cdf384a5a8d6d72d6a41d9816115b6610f38565b426040516115c6939291906131af565b60405180910390a150565b6000600560008473ffffffffffffffffffffffffffffffffffffffff1673ffffffffffffffffffffffffffffffffffffffff16815260200190815260200160002060008373ffffffffffffffffffffffffffffffffffffffff1673ffffffffffffffffffffffffffffffffffffffff16815260200190815260200160002060009054906101000a900460ff16905092915050565b61166d6118e7565b73ffffffffffffffffffffffffffffffffffffffff1661168b610f38565b73ffffffffffffffffffffffffffffffffffffffff16146116e1576040517f08c379a00000000000000000000000000000000000000000000000000000000081526004016116d8906130d4565b60405180910390fd5b600073ffffffffffffffffffffffffffffffffffffffff168173ffffffffffffffffffffffffffffffffffffffff161415611751576040517f08c379a000000000000000000000000000000000000000000000000000000000815260040161174890612f14565b60405180910390fd5b8073ffffffffffffffffffffffffffffffffffffffff16600760009054906101000a900473ffffffffffffffffffffffffffffffffffffffff1673ffffffffffffffffffffffffffffffffffffffff167f8be0079c531659141344cd1fd0a4f28419497f9722a3daafe3b4186f6b6457e060405160405180910390a380600760006101000a81548173ffffffffffffffffffffffffffffffffffffffff021916908373ffffffffffffffffffffffffffffffffffffffff16021790555050565b60007f01ffc9a7000000000000000000000000000000000000000000000000000000007bffffffffffffffffffffffffffffffffffffffffffffffffffffffff1916827bffffffffffffffffffffffffffffffffffffffffffffffffffffffff1916149050919050565b60008073ffffffffffffffffffffffffffffffffffffffff166002600084815260200190815260200160002060009054906101000a900473ffffffffffffffffffffffffffffffffffffffff1673ffffffffffffffffffffffffffffffffffffffff1614159050919050565b600033905090565b816004600083815260200190815260200160002060006101000a81548173ffffffffffffffffffffffffffffffffffffffff021916908373ffffffffffffffffffffffffffffffffffffffff160217905550808273ffffffffffffffffffffffffffffffffffffffff1661196283610701565b73ffffffffffffffffffffffffffffffffffffffff167f8c5be1e5ebec7d5bd14f71427d1e84f3dd0314c0f7b2291e5b200ac8c7c3b92560405160405180910390a45050565b60006119b38261187b565b6119f2576040517f08c379a00000000000000000000000000000000000000000000000000000000081526004016119e990612fb4565b60405180910390fd5b60006119fd83610701565b90508073ffffffffffffffffffffffffffffffffffffffff168473ffffffffffffffffffffffffffffffffffffffff161480611a6c57508373ffffffffffffffffffffffffffffffffffffffff16611a54846104e4565b73ffffffffffffffffffffffffffffffffffffffff16145b80611a7d5750611a7c81856115d1565b5b91505092915050565b8273ffffffffffffffffffffffffffffffffffffffff16611aa682610701565b73ffffffffffffffffffffffffffffffffffffffff1614611afc576040517f08c379a0000000000000000000000000000000000000000000000000000000008152600401611af3906130f4565b60405180910390fd5b600073ffffffffffffffffffffffffffffffffffffffff168273ffffffffffffffffffffffffffffffffffffffff161415611b6c576040517f08c379a0000000000000000000000000000000000000000000000000000000008152600401611b6390612f54565b60405180910390fd5b611b77838383612091565b611b826000826118ef565b6001600360008573ffffffffffffffffffffffffffffffffffffffff1673ffffffffffffffffffffffffffffffffffffffff1681526020019081526020016000206000828254611bd29190613306565b925050819055506001600360008473ffffffffffffffffffffffffffffffffffffffff1673ffffffffffffffffffffffffffffffffffffffff1681526020019081526020016000206000828254611c29919061327f565b92505081905550816002600083815260200190815260200160002060006101000a81548173ffffffffffffffffffffffffffffffffffffffff021916908373ffffffffffffffffffffffffffffffffffffffff160217905550808273ffffffffffffffffffffffffffffffffffffffff168473ffffffffffffffffffffffffffffffffffffffff167fddf252ad1be2c89b69c2b068fc378daa952ba7f163c4a11628f55a4df523b3ef60405160405180910390a4505050565b611ceb81612096565b6000600660008381526020019081526020016000208054611d0b90613438565b905014611d3257600660008281526020019081526020016000206000611d3191906124b2565b5b50565b600073ffffffffffffffffffffffffffffffffffffffff168273ffffffffffffffffffffffffffffffffffffffff161415611da5576040517f08c379a0000000000000000000000000000000000000000000000000000000008152600401611d9c90613074565b60405180910390fd5b611dae8161187b565b15611dee576040517f08c379a0000000000000000000000000000000000000000000000000000000008152600401611de590612f34565b60405180910390fd5b611dfa60008383612091565b6001600360008473ffffffffffffffffffffffffffffffffffffffff1673ffffffffffffffffffffffffffffffffffffffff1681526020019081526020016000206000828254611e4a919061327f565b92505081905550816002600083815260200190815260200160002060006101000a81548173ffffffffffffffffffffffffffffffffffffffff021916908373ffffffffffffffffffffffffffffffffffffffff160217905550808273ffffffffffffffffffffffffffffffffffffffff16600073ffffffffffffffffffffffffffffffffffffffff167fddf252ad1be2c89b69c2b068fc378daa952ba7f163c4a11628f55a4df523b3ef60405160405180910390a45050565b611f0c8261187b565b611f4b576040517f08c379a0000000000000000000000000000000000000000000000000000000008152600401611f4290613034565b60405180910390fd5b80600660008481526020019081526020016000209080519060200190611f729291906124f2565b505050565b611f82848484611a86565b611f8e848484846121a7565b611fcd576040517f08c379a0000000000000000000000000000000000000000000000000000000008152600401611fc490612ef4565b60405180910390fd5b50505050565b606060405180602001604052806000815250905090565b6060611ff58261187b565b612034576040517f08c379a000000000000000000000000000000000000000000000000000000000815260040161202b90613114565b60405180910390fd5b600061203e611fd3565b9050600081511161205e5760405180602001604052806000815250612089565b806120688461233e565b604051602001612079929190612d27565b6040516020818303038152906040525b915050919050565b505050565b60006120a182610701565b90506120af81600084612091565b6120ba6000836118ef565b6001600360008373ffffffffffffffffffffffffffffffffffffffff1673ffffffffffffffffffffffffffffffffffffffff168152602001908152602001600020600082825461210a9190613306565b925050819055506002600083815260200190815260200160002060006101000a81549073ffffffffffffffffffffffffffffffffffffffff021916905581600073ffffffffffffffffffffffffffffffffffffffff168273ffffffffffffffffffffffffffffffffffffffff167fddf252ad1be2c89b69c2b068fc378daa952ba7f163c4a11628f55a4df523b3ef60405160405180910390a45050565b60006121c88473ffffffffffffffffffffffffffffffffffffffff1661249f565b15612331578373ffffffffffffffffffffffffffffffffffffffff1663150b7a026121f16118e7565b8786866040518563ffffffff1660e01b81526004016122139493929190612e42565b602060405180830381600087803b15801561222d57600080fd5b505af192505050801561225e57506040513d601f19601f8201168201806040525081019061225b91906128b5565b60015b6122e1573d806000811461228e576040519150601f19603f3d011682016040523d82523d6000602084013e612293565b606091505b506000815114156122d9576040517f08c379a00000000000000000000000000000000000000000000000000000000081526004016122d090612ef4565b60405180910390fd5b805181602001fd5b63150b7a0260e01b7bffffffffffffffffffffffffffffffffffffffffffffffffffffffff1916817bffffffffffffffffffffffffffffffffffffffffffffffffffffffff191614915050612336565b600190505b949350505050565b60606000821415612386576040518060400160405280600181526020017f3000000000000000000000000000000000000000000000000000000000000000815250905061249a565b600082905060005b600082146123b85780806123a19061349b565b915050600a826123b191906132d5565b915061238e565b60008167ffffffffffffffff8111156123d4576123d36135d1565b5b6040519080825280601f01601f1916602001820160405280156124065781602001600182028036833780820191505090505b5090505b600085146124935760018261241f9190613306565b9150600a8561242e91906134e4565b603061243a919061327f565b60f81b8183815181106124505761244f6135a2565b5b60200101907effffffffffffffffffffffffffffffffffffffffffffffffffffffffffffff1916908160001a905350600a8561248c91906132d5565b945061240a565b8093505050505b919050565b600080823b905060008111915050919050565b5080546124be90613438565b6000825580601f106124d057506124ef565b601f0160209004906000526020600020908101906124ee9190612578565b5b50565b8280546124fe90613438565b90600052602060002090601f0160209004810192826125205760008555612567565b82601f1061253957805160ff1916838001178555612567565b82800160010185558215612567579182015b8281111561256657825182559160200191906001019061254b565b5b5090506125749190612578565b5090565b5b80821115612591576000816000905550600101612579565b5090565b60006125a86125a38461320b565b6131e6565b9050828152602081018484840111156125c4576125c3613605565b5b6125cf8482856133f6565b509392505050565b6000813590506125e681613b96565b92915050565b6000813590506125fb81613bad565b92915050565b60008151905061261081613bad565b92915050565b60008135905061262581613bc4565b92915050565b60008151905061263a81613bc4565b92915050565b600082601f83011261265557612654613600565b5b8135612665848260208601612595565b91505092915050565b60008135905061267d81613bdb565b92915050565b60008151905061269281613bdb565b92915050565b6000602082840312156126ae576126ad61360f565b5b60006126bc848285016125d7565b91505092915050565b600080604083850312156126dc576126db61360f565b5b60006126ea858286016125d7565b92505060206126fb858286016125d7565b9150509250929050565b60008060006060848603121561271e5761271d61360f565b5b600061272c868287016125d7565b935050602061273d868287016125d7565b925050604061274e8682870161266e565b9150509250925092565b600080600080608085870312156127725761277161360f565b5b6000612780878288016125d7565b9450506020612791878288016125d7565b93505060406127a28782880161266e565b925050606085013567ffffffffffffffff8111156127c3576127c261360a565b5b6127cf87828801612640565b91505092959194509250565b600080604083850312156127f2576127f161360f565b5b6000612800858286016125d7565b9250506020612811858286016125ec565b9150509250929050565b600080604083850312156128325761283161360f565b5b6000612840858286016125d7565b92505060206128518582860161266e565b9150509250929050565b6000602082840312156128715761287061360f565b5b600061287f84828501612601565b91505092915050565b60006020828403121561289e5761289d61360f565b5b60006128ac84828501612616565b91505092915050565b6000602082840312156128cb576128ca61360f565b5b60006128d98482850161262b565b91505092915050565b6000602082840312156128f8576128f761360f565b5b60006129068482850161266e565b91505092915050565b6000602082840312156129255761292461360f565b5b600061293384828501612683565b91505092915050565b6129458161333a565b82525050565b6129548161334c565b82525050565b60006129658261323c565b61296f8185613252565b935061297f818560208601613405565b61298881613614565b840191505092915050565b61299c816133ae565b82525050565b6129ab816133c0565b82525050565b6129ba816133d2565b82525050565b6129c9816133e4565b82525050565b60006129da82613247565b6129e48185613263565b93506129f4818560208601613405565b6129fd81613614565b840191505092915050565b6000612a1382613247565b612a1d8185613274565b9350612a2d818560208601613405565b80840191505092915050565b6000612a46603283613263565b9150612a5182613625565b604082019050919050565b6000612a69602683613263565b9150612a7482613674565b604082019050919050565b6000612a8c601c83613263565b9150612a97826136c3565b602082019050919050565b6000612aaf602483613263565b9150612aba826136ec565b604082019050919050565b6000612ad2601983613263565b9150612add8261373b565b602082019050919050565b6000612af5600d83613263565b9150612b0082613764565b602082019050919050565b6000612b18602c83613263565b9150612b238261378d565b604082019050919050565b6000612b3b603883613263565b9150612b46826137dc565b604082019050919050565b6000612b5e602a83613263565b9150612b698261382b565b604082019050919050565b6000612b81602983613263565b9150612b8c8261387a565b604082019050919050565b6000612ba4602e83613263565b9150612baf826138c9565b604082019050919050565b6000612bc7601383613263565b9150612bd282613918565b602082019050919050565b6000612bea602083613263565b9150612bf582613941565b602082019050919050565b6000612c0d603183613263565b9150612c188261396a565b604082019050919050565b6000612c30602c83613263565b9150612c3b826139b9565b604082019050919050565b6000612c53602083613263565b9150612c5e82613a08565b602082019050919050565b6000612c76602983613263565b9150612c8182613a31565b604082019050919050565b6000612c99602f83613263565b9150612ca482613a80565b604082019050919050565b6000612cbc602183613263565b9150612cc782613acf565b604082019050919050565b6000612cdf601283613263565b9150612cea82613b1e565b602082019050919050565b6000612d02603183613263565b9150612d0d82613b47565b604082019050919050565b612d21816133a4565b82525050565b6000612d338285612a08565b9150612d3f8284612a08565b91508190509392505050565b6000602082019050612d60600083018461293c565b92915050565b6000606082019050612d7b600083018661293c565b612d88602083018561293c565b612d956040830184612993565b949350505050565b6000606082019050612db2600083018661293c565b612dbf602083018561293c565b612dcc60408301846129a2565b949350505050565b6000606082019050612de9600083018661293c565b612df6602083018561293c565b612e0360408301846129b1565b949350505050565b6000606082019050612e20600083018661293c565b612e2d602083018561293c565b612e3a60408301846129c0565b949350505050565b6000608082019050612e57600083018761293c565b612e64602083018661293c565b612e716040830185612d18565b8181036060830152612e83818461295a565b905095945050505050565b6000604082019050612ea3600083018561293c565b612eb06020830184612d18565b9392505050565b6000602082019050612ecc600083018461294b565b92915050565b60006020820190508181036000830152612eec81846129cf565b905092915050565b60006020820190508181036000830152612f0d81612a39565b9050919050565b60006020820190508181036000830152612f2d81612a5c565b9050919050565b60006020820190508181036000830152612f4d81612a7f565b9050919050565b60006020820190508181036000830152612f6d81612aa2565b9050919050565b60006020820190508181036000830152612f8d81612ac5565b9050919050565b60006020820190508181036000830152612fad81612ae8565b9050919050565b60006020820190508181036000830152612fcd81612b0b565b9050919050565b60006020820190508181036000830152612fed81612b2e565b9050919050565b6000602082019050818103600083015261300d81612b51565b9050919050565b6000602082019050818103600083015261302d81612b74565b9050919050565b6000602082019050818103600083015261304d81612b97565b9050919050565b6000602082019050818103600083015261306d81612bba565b9050919050565b6000602082019050818103600083015261308d81612bdd565b9050919050565b600060208201905081810360008301526130ad81612c00565b9050919050565b600060208201905081810360008301526130cd81612c23565b9050919050565b600060208201905081810360008301526130ed81612c46565b9050919050565b6000602082019050818103600083015261310d81612c69565b9050919050565b6000602082019050818103600083015261312d81612c8c565b9050919050565b6000602082019050818103600083015261314d81612caf565b9050919050565b6000602082019050818103600083015261316d81612cd2565b9050919050565b6000602082019050818103600083015261318d81612cf5565b9050919050565b60006020820190506131a96000830184612d18565b92915050565b60006060820190506131c46000830186612d18565b6131d1602083018561293c565b6131de6040830184612d18565b949350505050565b60006131f0613201565b90506131fc828261346a565b919050565b6000604051905090565b600067ffffffffffffffff821115613226576132256135d1565b5b61322f82613614565b9050602081019050919050565b600081519050919050565b600081519050919050565b600082825260208201905092915050565b600082825260208201905092915050565b600081905092915050565b600061328a826133a4565b9150613295836133a4565b9250827fffffffffffffffffffffffffffffffffffffffffffffffffffffffffffffffff038211156132ca576132c9613515565b5b828201905092915050565b60006132e0826133a4565b91506132eb836133a4565b9250826132fb576132fa613544565b5b828204905092915050565b6000613311826133a4565b915061331c836133a4565b92508282101561332f5761332e613515565b5b828203905092915050565b600061334582613384565b9050919050565b60008115159050919050565b60007fffffffff0000000000000000000000000000000000000000000000000000000082169050919050565b600073ffffffffffffffffffffffffffffffffffffffff82169050919050565b6000819050919050565b60006133b9826133a4565b9050919050565b60006133cb826133a4565b9050919050565b60006133dd826133a4565b9050919050565b60006133ef826133a4565b9050919050565b82818337600083830152505050565b60005b83811015613423578082015181840152602081019050613408565b83811115613432576000848401525b50505050565b6000600282049050600182168061345057607f821691505b6020821081141561346457613463613573565b5b50919050565b61347382613614565b810181811067ffffffffffffffff82111715613492576134916135d1565b5b80604052505050565b60006134a6826133a4565b91507fffffffffffffffffffffffffffffffffffffffffffffffffffffffffffffffff8214156134d9576134d8613515565b5b600182019050919050565b60006134ef826133a4565b91506134fa836133a4565b92508261350a57613509613544565b5b828206905092915050565b7f4e487b7100000000000000000000000000000000000000000000000000000000600052601160045260246000fd5b7f4e487b7100000000000000000000000000000000000000000000000000000000600052601260045260246000fd5b7f4e487b7100000000000000000000000000000000000000000000000000000000600052602260045260246000fd5b7f4e487b7100000000000000000000000000000000000000000000000000000000600052603260045260246000fd5b7f4e487b7100000000000000000000000000000000000000000000000000000000600052604160045260246000fd5b600080fd5b600080fd5b600080fd5b600080fd5b6000601f19601f8301169050919050565b7f4552433732313a207472616e7366657220746f206e6f6e20455243373231526560008201527f63656976657220696d706c656d656e7465720000000000000000000000000000602082015250565b7f4f776e61626c653a206e6577206f776e657220697320746865207a65726f206160008201527f6464726573730000000000000000000000000000000000000000000000000000602082015250565b7f4552433732313a20746f6b656e20616c7265616479206d696e74656400000000600082015250565b7f4552433732313a207472616e7366657220746f20746865207a65726f2061646460008201527f7265737300000000000000000000000000000000000000000000000000000000602082015250565b7f4552433732313a20617070726f766520746f2063616c6c657200000000000000600082015250565b7f4e6f74206f776e20686561727400000000000000000000000000000000000000600082015250565b7f4552433732313a206f70657261746f7220717565727920666f72206e6f6e657860008201527f697374656e7420746f6b656e0000000000000000000000000000000000000000602082015250565b7f4552433732313a20617070726f76652063616c6c6572206973206e6f74206f7760008201527f6e6572206e6f7220617070726f76656420666f7220616c6c0000000000000000602082015250565b7f4552433732313a2062616c616e636520717565727920666f7220746865207a6560008201527f726f206164647265737300000000000000000000000000000000000000000000602082015250565b7f4552433732313a206f776e657220717565727920666f72206e6f6e657869737460008201527f656e7420746f6b656e0000000000000000000000000000000000000000000000602082015250565b7f45524337323155524953746f726167653a2055524920736574206f66206e6f6e60008201527f6578697374656e7420746f6b656e000000000000000000000000000000000000602082015250565b7f546f6b656e207472616e73666572206661696c00000000000000000000000000600082015250565b7f4552433732313a206d696e7420746f20746865207a65726f2061646472657373600082015250565b7f45524337323155524953746f726167653a2055524920717565727920666f722060008201527f6e6f6e6578697374656e7420746f6b656e000000000000000000000000000000602082015250565b7f4552433732313a20617070726f76656420717565727920666f72206e6f6e657860008201527f697374656e7420746f6b656e0000000000000000000000000000000000000000602082015250565b7f4f776e61626c653a2063616c6c6572206973206e6f7420746865206f776e6572600082015250565b7f4552433732313a207472616e73666572206f6620746f6b656e2074686174206960008201527f73206e6f74206f776e0000000000000000000000000000000000000000000000602082015250565b7f4552433732314d657461646174613a2055524920717565727920666f72206e6f60008201527f6e6578697374656e7420746f6b656e0000000000000000000000000000000000602082015250565b7f4552433732313a20617070726f76616c20746f2063757272656e74206f776e6560008201527f7200000000000000000000000000000000000000000000000000000000000000602082015250565b7f546f6b656e20696e73756666696369656e740000000000000000000000000000600082015250565b7f4552433732313a207472616e736665722063616c6c6572206973206e6f74206f60008201527f776e6572206e6f7220617070726f766564000000000000000000000000000000602082015250565b613b9f8161333a565b8114613baa57600080fd5b50565b613bb68161334c565b8114613bc157600080fd5b50565b613bcd81613358565b8114613bd857600080fd5b50565b613be4816133a4565b8114613bef57600080fd5b5056fe68747470733a2f2f796c67722e6769746875622e696f2f6e6966742d6d656d6f72792f68656172742f68656172742e6a736f6ea2646970667358221220b388582dfce960c82336db9a87c2ff35a87c5fdc32eeebadf3937fbe9d3c16f164736f6c63430008060033",
  "immutableReferences": {},
  "source": "// SPDX-License-Identifier: MIT\n\npragma solidity ^0.8.0;\n\nimport \"@openzeppelin/contracts/token/ERC721/extensions/ERC721URIStorage.sol\";\nimport \"@openzeppelin/contracts/token/ERC721/extensions/ERC721URIStorage.sol\";\nimport \"@openzeppelin/contracts/access/Ownable.sol\";\nimport \"@openzeppelin/contracts/token/ERC20/IERC20.sol\";\nimport \"@openzeppelin/contracts/token/ERC721/IERC721.sol\";\nimport \"@openzeppelin/contracts/utils/math/SafeMath.sol\";\n\ncontract NiftMemoryHeart is ERC721URIStorage, Ownable {\n\n    constructor() ERC721(\"Nift memory heart\", \"NIFT-HEART\") {}\n\n    IERC20 dust = IERC20(0xaae5fc57aE9B2702e165224bc7b4f700ba698b22);\n    IERC721 treasure = IERC721(0xE3864Fb24851EA437043Ae62104dF4692e11B8b1);\n\n    uint8 tokenId = 99;\n\n    event Craft(address addr, uint256 time);\n    event Revert(address addr, uint256 time);\n    event WithdrawDust(uint256 amount, address receiver, uint256 time);\n\n    function craft() public {\n        treasure.transferFrom(msg.sender, address(this), 1);\n        treasure.transferFrom(msg.sender, address(this), 2);\n        treasure.transferFrom(msg.sender, address(this), 3);\n\n        dust.transferFrom(msg.sender, address(this), 100 * 1e18);\n\n        _mint(msg.sender,tokenId);\n\n        _setTokenURI(tokenId, \"https://ylgr.github.io/nift-memory/heart/heart.json\");\n\n        emit Craft(msg.sender, block.timestamp);\n    }\n\n    function revert() public {\n        require(ownerOf(tokenId) == msg.sender, \"Not own heart\");\n        _burn(tokenId);\n\n        treasure.transferFrom(address(this), msg.sender, 1);\n        treasure.transferFrom(address(this), msg.sender, 2);\n        treasure.transferFrom(address(this), msg.sender, 3);\n\n        emit Revert(msg.sender, block.timestamp);\n    }\n\n    function withdrawDust() public onlyOwner {\n        uint256 amount = dust.balanceOf(address(this));\n\n        require(\n            amount > 0,\n            \"Token insufficient\"\n        );\n\n        require(\n            dust.transfer(owner(), amount),\n            \"Token transfer fail\"\n        );\n\n        emit WithdrawDust(\n            amount,\n            owner(),\n            block.timestamp\n        );\n    }\n\n\n}\n",
  "sourcePath": "/home/ylgr/PetProject/nift-memory/contracts/NiftMemoryHeart.sol",
  "compiler": {
    "name": "solc",
    "version": "0.8.6+commit.11564f7e.Emscripten.clang"
  },
  "schemaVersion": "3.4.1",
  "updatedAt": "2021-07-05T01:50:36.087Z",
  "networkType": "ethereum",
  "devdoc": {
    "kind": "dev",
    "methods": {
      "approve(address,uint256)": {
        "details": "See {IERC721-approve}."
      },
      "balanceOf(address)": {
        "details": "See {IERC721-balanceOf}."
      },
      "getApproved(uint256)": {
        "details": "See {IERC721-getApproved}."
      },
      "isApprovedForAll(address,address)": {
        "details": "See {IERC721-isApprovedForAll}."
      },
      "name()": {
        "details": "See {IERC721Metadata-name}."
      },
      "owner()": {
        "details": "Returns the address of the current owner."
      },
      "ownerOf(uint256)": {
        "details": "See {IERC721-ownerOf}."
      },
      "renounceOwnership()": {
        "details": "Leaves the contract without owner. It will not be possible to call `onlyOwner` functions anymore. Can only be called by the current owner. NOTE: Renouncing ownership will leave the contract without an owner, thereby removing any functionality that is only available to the owner."
      },
      "safeTransferFrom(address,address,uint256)": {
        "details": "See {IERC721-safeTransferFrom}."
      },
      "safeTransferFrom(address,address,uint256,bytes)": {
        "details": "See {IERC721-safeTransferFrom}."
      },
      "setApprovalForAll(address,bool)": {
        "details": "See {IERC721-setApprovalForAll}."
      },
      "supportsInterface(bytes4)": {
        "details": "See {IERC165-supportsInterface}."
      },
      "symbol()": {
        "details": "See {IERC721Metadata-symbol}."
      },
      "tokenURI(uint256)": {
        "details": "See {IERC721Metadata-tokenURI}."
      },
      "transferFrom(address,address,uint256)": {
        "details": "See {IERC721-transferFrom}."
      },
      "transferOwnership(address)": {
        "details": "Transfers ownership of the contract to a new account (`newOwner`). Can only be called by the current owner."
      }
    },
    "version": 1
  },
  "userdoc": {
    "kind": "user",
    "methods": {},
    "version": 1
  }
}